{
  "_format": "hh-sol-artifact-1",
  "contractName": "BuyMeACoffee",
  "sourceName": "contracts/BuyMeACoffe.sol",
  "abi": [
    {
      "inputs": [],
      "stateMutability": "nonpayable",
      "type": "constructor"
    },
    {
      "anonymous": false,
      "inputs": [
        {
          "indexed": true,
          "internalType": "address",
          "name": "from",
          "type": "address"
        },
        {
          "indexed": false,
          "internalType": "uint256",
          "name": "timestamp",
          "type": "uint256"
        },
        {
          "indexed": false,
          "internalType": "string",
          "name": "name",
          "type": "string"
        },
        {
          "indexed": false,
          "internalType": "string",
          "name": "message",
          "type": "string"
        }
      ],
      "name": "NewMemo",
      "type": "event"
    },
    {
      "inputs": [
        {
          "internalType": "string",
          "name": "_name",
          "type": "string"
        },
        {
          "internalType": "string",
          "name": "_message",
          "type": "string"
        }
      ],
      "name": "buyCoffee",
      "outputs": [],
      "stateMutability": "payable",
      "type": "function"
    },
    {
      "inputs": [],
      "name": "getMemos",
      "outputs": [
        {
          "components": [
            {
              "internalType": "address",
              "name": "from",
              "type": "address"
            },
            {
              "internalType": "uint256",
              "name": "timestamp",
              "type": "uint256"
            },
            {
              "internalType": "string",
              "name": "name",
              "type": "string"
            },
            {
              "internalType": "string",
              "name": "message",
              "type": "string"
            }
          ],
          "internalType": "struct BuyMeACoffee.Memo[]",
          "name": "",
          "type": "tuple[]"
        }
      ],
      "stateMutability": "view",
      "type": "function"
    },
    {
      "inputs": [],
      "name": "withdrawTips",
      "outputs": [],
      "stateMutability": "nonpayable",
      "type": "function"
    }
  ],
  "bytecode": "0x608060405234801561001057600080fd5b50336000806101000a81548173ffffffffffffffffffffffffffffffffffffffff021916908373ffffffffffffffffffffffffffffffffffffffff160217905550610a6c806100606000396000f3fe6080604052600436106100345760003560e01c8063204206e1146100395780633aaa74b214610055578063865c51721461006c575b600080fd5b610053600480360381019061004e9190610602565b610097565b005b34801561006157600080fd5b5061006a6102ad565b005b34801561007857600080fd5b5061008161030d565b60405161008e91906108a2565b60405180910390f35b600034116100da576040517f08c379a00000000000000000000000000000000000000000000000000000000081526004016100d190610921565b60405180910390fd5b600160405180608001604052803373ffffffffffffffffffffffffffffffffffffffff16815260200142815260200186868080601f016020809104026020016040519081016040528093929190818152602001838380828437600081840152601f19601f82011690508083019250505050505050815260200184848080601f016020809104026020016040519081016040528093929190818152602001838380828437600081840152601f19601f82011690508083019250505050505050815250908060018154018082558091505060019003906000526020600020906004020160009091909190915060008201518160000160006101000a81548173ffffffffffffffffffffffffffffffffffffffff021916908373ffffffffffffffffffffffffffffffffffffffff1602179055506020820151816001015560408201518160020190805190602001906102319291906104f0565b50606082015181600301908051906020019061024e9291906104f0565b5050503373ffffffffffffffffffffffffffffffffffffffff167fc56140e05f516509ae28110e0f72e17558a7561630dad2647c3ae87d986e365c428686868660405161029f95949392919061098c565b60405180910390a250505050565b60008054906101000a900473ffffffffffffffffffffffffffffffffffffffff1673ffffffffffffffffffffffffffffffffffffffff166108fc479081150290604051600060405180830381858888f1935050505061030b57600080fd5b565b60606001805480602002602001604051908101604052809291908181526020016000905b828210156104e757838290600052602060002090600402016040518060800160405290816000820160009054906101000a900473ffffffffffffffffffffffffffffffffffffffff1673ffffffffffffffffffffffffffffffffffffffff1673ffffffffffffffffffffffffffffffffffffffff168152602001600182015481526020016002820180546103c490610a04565b80601f01602080910402602001604051908101604052809291908181526020018280546103f090610a04565b801561043d5780601f106104125761010080835404028352916020019161043d565b820191906000526020600020905b81548152906001019060200180831161042057829003601f168201915b5050505050815260200160038201805461045690610a04565b80601f016020809104026020016040519081016040528092919081815260200182805461048290610a04565b80156104cf5780601f106104a4576101008083540402835291602001916104cf565b820191906000526020600020905b8154815290600101906020018083116104b257829003601f168201915b50505050508152505081526020019060010190610331565b50505050905090565b8280546104fc90610a04565b90600052602060002090601f01602090048101928261051e5760008555610565565b82601f1061053757805160ff1916838001178555610565565b82800160010185558215610565579182015b82811115610564578251825591602001919060010190610549565b5b5090506105729190610576565b5090565b5b8082111561058f576000816000905550600101610577565b5090565b600080fd5b600080fd5b600080fd5b600080fd5b600080fd5b60008083601f8401126105c2576105c161059d565b5b8235905067ffffffffffffffff8111156105df576105de6105a2565b5b6020830191508360018202830111156105fb576105fa6105a7565b5b9250929050565b6000806000806040858703121561061c5761061b610593565b5b600085013567ffffffffffffffff81111561063a57610639610598565b5b610646878288016105ac565b9450945050602085013567ffffffffffffffff81111561066957610668610598565b5b610675878288016105ac565b925092505092959194509250565b600081519050919050565b600082825260208201905092915050565b6000819050602082019050919050565b600073ffffffffffffffffffffffffffffffffffffffff82169050919050565b60006106da826106af565b9050919050565b6106ea816106cf565b82525050565b6000819050919050565b610703816106f0565b82525050565b600081519050919050565b600082825260208201905092915050565b60005b83811015610743578082015181840152602081019050610728565b83811115610752576000848401525b50505050565b6000601f19601f8301169050919050565b600061077482610709565b61077e8185610714565b935061078e818560208601610725565b61079781610758565b840191505092915050565b60006080830160008301516107ba60008601826106e1565b5060208301516107cd60208601826106fa565b50604083015184820360408601526107e58282610769565b915050606083015184820360608601526107ff8282610769565b9150508091505092915050565b600061081883836107a2565b905092915050565b6000602082019050919050565b600061083882610683565b610842818561068e565b9350836020820285016108548561069f565b8060005b858110156108905784840389528151610871858261080c565b945061087c83610820565b925060208a01995050600181019050610858565b50829750879550505050505092915050565b600060208201905081810360008301526108bc818461082d565b905092915050565b600082825260208201905092915050565b7f63616e27742062757920636f6666656520666f72206672656500000000000000600082015250565b600061090b6019836108c4565b9150610916826108d5565b602082019050919050565b6000602082019050818103600083015261093a816108fe565b9050919050565b61094a816106f0565b82525050565b82818337600083830152505050565b600061096b83856108c4565b9350610978838584610950565b61098183610758565b840190509392505050565b60006060820190506109a16000830188610941565b81810360208301526109b481868861095f565b905081810360408301526109c981848661095f565b90509695505050505050565b7f4e487b7100000000000000000000000000000000000000000000000000000000600052602260045260246000fd5b60006002820490506001821680610a1c57607f821691505b60208210811415610a3057610a2f6109d5565b5b5091905056fea2646970667358221220c7a7e486f4a78e4d7639004888179c7ee5129f556eeb86ae70db6ea05f48167d64736f6c63430008090033",
  "linkReferences": {},
  "deployedLinkReferences": {}
}